S01F00007370695F6C6162325F55384C34535F204D4158373232312E7372656309
S11300000C942A000C9434000C9434000C943400A6
S11300100C9434000C9434000C9434000C9434008C
S11300200C9434000C9434000C9434000C9434007C
S11300300C9434000C9434000C9434000C9434006C
S11300400C9434000C9434000C9434000C9434005C
S11300500C94340011241FBECFE5D8E0DEBFCDBF21
S11300600E9449000C9471000C94000087B3806BCB
S113007087BB81E58DB9089598B39F7E98BB8FB9EE
S1130080779BFECF6FB9779BFECF88B3806188BB27
S113009008950E9436006FEF89E00E943C006FEFE4
S11300A08AE00E943C0067EF8BE00E943C0061E024
S11300B08CE00E943C0060E0C1E010C0D1E0D60FAB
S11300C08C2F0E943C002FE58AEE90E02150804066
S11300D09040E1F700C00000CF5F6D2FC93070F38E
S10900E0EBCFF894FFCF02
S9030000FC
