:100000000C942A000C9447000C9447000C94470071
:100010000C9447000C9447000C9447000C94470044
:100020000C9447000C9447000C9441020C941A0263
:100030000C9447000C9447000C9447000C94470024
:100040000C94F3010C9447000C9447000C94470067
:100050000C94470011241FBECFE5D8E0DEBFCDBF12
:1000600010E0A0E6B0E0E0E2FBE002C005900D92F7
:10007000A038B107D9F720E0A0E8B0E001C01D9298
:10008000A139B207E1F70E9472010C948E050C941D
:100090000000CF93DF93CDB7DEB727970FB6F89464
:1000A000DEBF0FBECDBF0E94CE00198286E08B83DB
:1000B0001C8280E48A831D821F821E82CE010196EB
:1000C0000E94770180E690E00E941B0140E066E814
:1000D00070E081E00E94B10120918600309187009C
:1000E0004091880050918900A8E8B3E10E948A02FB
:1000F00026EF37E240E050E00E9468022093820041
:100100003093830040938400509385006DE070E04D
:1001100081E090E00E94060180918200909183002E
:100120000E9448018EE690E00E941B01CFCF88B369
:10013000846088BB2FE788E391E0215080409040A5
:10014000E1F700C0000088B38B7F88BB089581B3BE
:1001500011BA88B3826088BB88B38E7F88BB0E9447
:10016000970081B38FEF81BB88B38D7F88BB0895E3
:10017000CF93C82F0E94A700C2BB88B38C7F88BBD7
:100180008FEC97E00197F1F700C000000E94970004
:10019000CF91089581E00E94B80008958FE39CE913
:1001A0000197F1F700C0000087B3876087BB88B371
:1001B000887F88BB8FEF81BB8FE295E70197F1F7CE
:1001C00000C000000E94CA0088E30E94B80086E0D8
:1001D0000E94B80080E80E94B8008CE00E94B8003D
:1001E0000895CF93C82F0E94A700C2BB88B38D7F0C
:1001F00088BB88B3816088BB8FEC97E00197F1F7EB
:1002000000C000000E949700CF91089581309105B1
:1002100041F46031710570F480E8860F0E94B800E7
:100220000895029739F46031710520F480EC860F4F
:100230000E94B80008950F931F93CF93DF938C0112
:10024000C0E0D0E01CC021960F5F1F4F0E94F1005C
:10025000C031D10539F460E070E082E090E00E94A6
:1002600006010DC0C032D10554F00E94CA0060E002
:1002700070E081E090E00E940601C0E0D0E0F8016B
:1002800080818111E0CFDF91CF911F910F9108956F
:100290000F931F93CF93DF9300D000D000D0CDB742
:1002A000DEB79F938F9380E790E09F938F938E01AB
:1002B0000F5F1F4F1F930F930E94A402C8010E945B
:1002C0001B010F900F900F900F900F900F9026969C
:1002D0000FB6F894DEBF0FBECDBFDF91CF911F9157
:1002E0000F9108950E94490080E090E00895CF9317
:1002F000DF93EC0187E0FE01AAE8B0E001900D92E7
:100300008A95E1F796B18881892B86B997B1898161
:10031000892B87B997B18B81892B87B997B18A814E
:10032000892B87B996B18C81892B86B98C818830CD
:1003300009F4789486B1806886B9288130E046B1A6
:1003400081E090E002C0880F991F4A95E2F7992753
:100350002817390719F486B1806486B9DF91CF91E7
:10036000089597B1907E97B997B1982B97B95AB3E2
:1003700021E030E0F90102C0EE0FFF1F8A95E2F79D
:10038000CF01809585238ABB80918A00811103C0AB
:1003900086B1806486B9411102C0349BFECF809142
:1003A0008D0081110BC024B185B1837090E0982F2E
:1003B0008827822BFB019183808311C0803279F4DE
:1003C00024B1229526952695237085B190E0880F5B
:1003D000991F880F991F822BFB019183808386B11F
:1003E0008F7E86B908951F920F920FB60F92112437
:1003F0002F933F934F935F936F937F938F939F932D
:10040000AF93BF93EF93FF93E0918F00F091900033
:100410000995FF91EF91BF91AF919F918F917F913E
:100420006F915F914F913F912F910F900FBE0F9061
:100430001F9018951F920F920FB60F9211242F93B1
:100440003F934F935F936F937F938F939F93AF935C
:10045000BF93EF93FF93E0918000F09181000995A5
:10046000FF91EF91BF91AF919F918F917F916F918C
:100470005F914F913F912F910F900FBE0F901F9062
:1004800018951F920F920FB60F9211242F933F933E
:100490004F935F936F937F938F939F93AF93BF938C
:1004A000EF93FF93E0918000F09181000995FF9117
:1004B000EF91BF91AF919F918F917F916F915F91DC
:1004C0004F913F912F910F900FBE0F901F90189555
:1004D000A1E21A2EAA1BBB1BFD010DC0AA1FBB1F48
:1004E000EE1FFF1FA217B307E407F50720F0A21BBA
:1004F000B30BE40BF50B661F771F881F991F1A9427
:1005000069F760957095809590959B01AC01BD0150
:10051000CF0108950E949502A59F900DB49F900D64
:10052000A49F800D911D11240895A29FB001B39F37
:10053000C001A39F700D811D1124911DB29F700DEC
:10054000811D1124911D0895AEE0B0E0EAEAF2E0C9
:100550000C9465050D891E8986E08C831A830983B6
:100560008FEF9FE79E838D83AE01475E5F4F6F895C
:10057000788DCE0101960E94C602EF81F885E00FCA
:10058000F11F10822E96E4E00C948105ABE0B0E000
:10059000ECECF2E00C9457056C017B018A01FC0144
:1005A00017821682838181FFCCC1CE0101963C0166
:1005B000F6019381F70193FD859193FF81917F016E
:1005C000882309F4BAC1853239F493FD859193FFEC
:1005D00081917F01853229F4B60190E00E94BD042B
:1005E000E7CF912C212C312CFFE1F315D8F08B3281
:1005F00079F038F4803279F08332A1F4232D206130
:100600001DC08D3261F0803369F4232D216016C046
:10061000832D8260382EE32DE4603E2E2AC0F32D18
:10062000F8601DC037FC2DC020ED280F2A3040F0A7
:100630008E32B9F436FC81C1232D2064322E19C0CC
:1006400036FE06C08AE0989E200D1124922E11C01D
:10065000EAE02E9E200D1124222EF32DF0623F2E73
:1006600008C08C3621F4832D8068382E02C088366D
:1006700041F4F70193FD859193FF81917F018111F1
:10068000B3CF982F9F7D9554933028F40C5F1F4F64
:100690009FE399830DC0833631F0833771F0833542
:1006A00009F059C021C0F801808189830E5F1F4F76
:1006B00088248394912C530113C02801F2E04F0E3B
:1006C000511CF801A080B18036FE03C0692D70E096
:1006D00002C06FEF7FEFC5010E94B2044C0182019E
:1006E000F32DFF773F2E16C0280122E0420E511C49
:1006F000F801A080B18036FE03C0692D70E002C011
:100700006FEF7FEFC5010E94A7044C01F32DF06845
:100710003F2E820133FC1BC0822D90E08816990683
:10072000B0F4B60180E290E00E94BD042A94F4CFB8
:10073000F50137FC859137FE81915F01B60190E0AC
:100740000E94BD0421102A9421E0821A910881148C
:10075000910471F7E8C0843611F0893641F5F8014B
:1007600037FE07C060817181828193810C5F1F4FCA
:1007700008C060817181072E000C880B990B0E5FF9
:100780001F4FF32DFF763F2E97FF09C09095809560
:10079000709561957F4F8F4F9F4FF0683F2E2AE0F5
:1007A00030E0A3010E94F904882E861845C08537E1
:1007B00031F4232D2F7EB22E2AE030E025C0932D78
:1007C000997FB92E8F36C1F018F4883579F0B5C00D
:1007D000803719F0883721F0B0C0E92FE061BE2ED4
:1007E000B4FE0DC0FB2DF460BF2E09C034FE0AC05C
:1007F000292F2660B22E06C028E030E005C020E197
:1008000030E002C020E132E0F801B7FE07C06081AD
:100810007181828193810C5F1F4F06C0608171815D
:1008200080E090E00E5F1F4FA3010E94F904882E24
:100830008618FB2DFF773F2E36FE0DC0232D2E7F11
:10084000A22E891458F434FE0BC032FC09C0832D4B
:100850008E7EA82E05C0B82CA32C03C0B82C01C0D6
:10086000B92CA4FE0FC0FE01E80DF11D808180337C
:1008700021F49A2D997EA92E09C0A2FE06C0B39438
:10088000B39404C08A2D867809F0B394A3FC11C0F8
:10089000A0FE06C0B21488F4280C922C9B180EC03F
:1008A000B21460F4B60180E290E00E94BD04B394FB
:1008B000F7CFB21418F42B1802C0982C212CA4FEE8
:1008C00010C0B60180E390E00E94BD04A2FE17C0F4
:1008D000A1FC03C088E790E002C088E590E0B60183
:1008E0000CC08A2D867859F0A1FE02C08BE201C0AF
:1008F00080E2A7FC8DE2B60190E00E94BD0489145D
:1009000038F4B60180E390E00E94BD049A94F7CFDA
:100910008A94F301E80DF11D8081B60190E00E94F8
:10092000BD048110F5CF222009F442CEB60180E249
:1009300090E00E94BD042A94F6CFF601868197814B
:1009400002C08FEF9FEF2B96E2E10C947305FC0140
:100950000590615070400110D8F7809590958E0FEA
:100960009F1F0895FC016150704001900110D8F75D
:10097000809590958E0F9F1F08950F931F93CF938F
:10098000DF93FB01238121FD03C08FEF9FEF2CC07C
:1009900022FF16C0468157812481358142175307B3
:1009A00044F4A081B1819D012F5F3F4F31832083AB
:1009B0008C93268137812F5F3F4F3783268314C066
:1009C0008B01EC01FB010084F185E02D0995892B59
:1009D000E1F6D80116968D919C911797019617967E
:1009E0009C938E931697CE01DF91CF911F910F911B
:1009F0000895FA01AA27283051F1203181F1E894B5
:100A00006F936E7F6E5F7F4F8F4F9F4FAF4FB1E001
:100A10003ED0B4E03CD0670F781F891F9A1FA11DFC
:100A2000680F791F8A1F911DA11D6A0F711D811DFD
:100A3000911DA11D20D009F468943F912AE0269FC2
:100A400011243019305D3193DEF6CF010895462F21
:100A50004770405D4193B3E00FD0C9F7F6CF462F02
:100A60004F70405D4A3318F0495D31FD405241936B
:100A700002D0A9F7EACFB4E0A69597958795779528
:100A80006795BA95C9F700976105710508959B01AF
:100A9000AC010A2E06945795479537952795BA9538
:100AA000C9F7620F731F841F951FA01D08952F9211
:100AB0003F924F925F926F927F928F929F92AF92EE
:100AC000BF92CF92DF92EF92FF920F931F93CF933B
:100AD000DF93CDB7DEB7CA1BDB0B0FB6F894DEBFD2
:100AE0000FBECDBF09942A88398848885F846E84F8
:100AF0007D848C849B84AA84B984C884DF80EE8042
:100B0000FD800C811B81AA81B981CE0FD11D0FB64A
:100B1000F894DEBF0FBECDBFED010895F894FFCF6E
:100B200074656D70657261747572653A200063005A
:100B30002564002D00247325642E253034640000C4
:00000001FF
