:100000000C942A000C9447000C9447000C94470071
:100010000C9447000C9447000C9447000C94470044
:100020000C9447000C9447000C9448010C94210157
:100030000C9447000C9447000C9447000C94470024
:100040000C9447000C9447000C9447000C94470014
:100050000C94470011241FBECFE5D8E0DEBFCDBF12
:1000600010E0A0E6B0E0E2EEF2E002C005900D92F2
:10007000A036B107D9F720E0A0E6B0E001C01D929C
:10008000A736B207E1F70E9464000C946F010C944C
:100090000000CF93DF9300D000D01F92CDB7DEB722
:1000A00041E063E081E00E94690088E7898382E0A3
:1000B0008A831B821D821C82CE0101960E94DF0072
:1000C00088EE0E941601FFCF0E94490080E090E078
:1000D0000895843008F072C0683008F06FC0413075
:1000E000A1F5813089F028F08230C9F0833011F118
:1000F00008952AB381E090E002C0880F991F6A95A5
:10010000E2F7822B8ABB089527B381E090E002C01A
:10011000880F991F6A95E2F7822B87BB089524B355
:1001200081E090E002C0880F991F6A95E2F7822B68
:1001300084BB089521B381E090E002C0880F991F2D
:100140006A95E2F7822B81BB0895411137C0813057
:1001500091F028F08230D9F0833029F108952AB344
:1001600081E090E002C0880F991F6A95E2F78095C0
:1001700082238ABB089527B381E090E002C0880FF4
:10018000991F6A95E2F78095822387BB089524B36F
:1001900081E090E002C0880F991F6A95E2F7809590
:1001A000822384BB089521B381E090E002C0880FD0
:1001B000991F6A95E2F78095822381BB0895CF93BA
:1001C000DF93EC0185E0FE01A2E6B0E001900D9224
:1001D0008A95E1F793B78881892B83BF8881883717
:1001E00011F0883629F441E063E081E00E94690063
:1001F00093B78981892B83BF89818650823028F407
:1002000040E060E081E00E94690099B78A81892B13
:1002100089BF8A81882309F078948B819C8190938F
:10022000610080936000DF91CF910895909162000A
:10023000983611F48CBF0895983711F480958CBFCF
:1002400008951F920F920FB60F9211242F933F9390
:100250004F935F936F937F938F939F93AF93BF93CE
:10026000EF93FF93E0916000F09161000995FF9199
:10027000EF91BF91AF919F918F917F916F915F911E
:100280004F913F912F910F900FBE0F901F90189597
:100290001F920F920FB60F9211242F933F934F93FB
:1002A0005F936F937F938F939F93AF93BF93EF93DE
:1002B000FF93E0916000F09161000995FF91EF914B
:1002C000BF91AF919F918F917F916F915F914F916E
:1002D0003F912F910F900FBE0F901F901895F8949B
:0202E000FFCF4E
:00000001FF
