:100000000C942A000C9434000C9434000C943400AA
:100010000C9434000C9434000C9434000C94340090
:100020000C9434000C9434000C9434000C94340080
:100030000C9434000C9434000C9434000C94340070
:100040000C9434000C9434000C9434000C94340060
:100050000C94340011241FBECFE5D8E0DEBFCDBF25
:100060000E9436000C947D000C940000CF93DF9327
:1000700000D0CDB7DEB78FEF8ABB19821A82898193
:10008000883011F481E08A838981811101C01A824C
:100090008A81811118C0298181E090E002C0880F17
:1000A000991F2A95E2F79BB3892B8BBB2FEF84E333
:1000B0009CE0215080409040E1F700C00000898121
:1000C0008F5F8983DCCF898181508983298181E099
:1000D00090E002C0880F991F2A95E2F780959095CD
:1000E0009BB389238BBB2FEF84E39CE0215080409E
:0E00F0009040E1F700C00000C2CFF894FFCFAF
:00000001FF
