S00E00007461736B5F322E73726563D2
S11300000C942A000C9434000C9434000C943400A6
S11300100C9434000C9434000C9434000C9434008C
S11300200C9434000C9434000C9434000C9434007C
S11300300C9434000C9434000C9434000C9434006C
S11300400C9434000C9434000C9434000C9434005C
S11300500C94340011241FBECFE5D8E0DEBFCDBF21
S11300600E9436000C9474000C9400008FEF8ABB3D
S113007084B38E7F84BB40E080E09899FECF8830C3
S113008009F441E0811101C040E0411116C09BB365
S113009021E030E0082E02C0220F331F0A94E2F759
S11300A0292B2BBB2FEF31EE94E0215030409040B0
S11300B0E1F700C000008F5FE0CF81509BB321E0E7
S11300C030E0082E02C0220F331F0A94E2F7209575
S11300D029232BBB2FEF31EE94E021503040904088
S10F00E0E1F700C00000C9CFF894FFCF86
S9030000FC
