:100000000C942A000C9434000C9434000C943400AA
:100010000C9434000C9434000C9434000C94340090
:100020000C9434000C9434000C9434000C94340080
:100030000C9434000C9434000C9434000C94340070
:100040000C9434000C9434000C9434000C94340060
:100050000C94340011241FBECFE5D8E0DEBFCDBF25
:100060000E9444000C9455000C94000087B3806BF0
:1000700087BB87B38F7B87BB81E58DB908958FB927
:10008000779BFECF8FB108958FEF8ABB0E94360019
:10009000C0E087EA91E60197F1F700C000008C2FDD
:0E00A0000E943F008BBBCF5FF4CFF894FFCFE0
:00000001FF
