S00E00007461736B5F332E73726563D1
S11300000C942A000C9434000C9434000C943400A6
S11300100C9434000C9434000C9434000C9434008C
S11300200C9434000C9434000C9434000C9434007C
S11300300C9434000C9434000C9434000C9434006C
S11300400C9434000C9434000C9434000C9434005C
S11300500C94340011241FBECFE5D8E0DEBFCDBF21
S11300600E9436000C9487000C940000CF93DF9319
S11300701F92CDB7DEB781B3806181BB81B380624B
S113008081BB81B3806481BB81B3806881BB8FEF06
S113009084BB84B38E7F84BB198287E0898324C0A8
S11300A0298181E090E0AC0102C0440F551F2A95DC
S11300B0E2F79A0132B3232B22BB5FEF24E33CE047
S11300C0515020403040E1F700C00000298102C0B7
S11300D0880F991F2A95E2F78095909592B389230A
S11300E082BB89818150898389818530C8F682B336
S11300F0806182BB4FEF54E38CE04150504080401C
S1130100E1F700C0000082B38F7E82BBC6CFF894B3
S1050110FFCF1B
S9030000FC
