:020000040800F2
:1000000000280020B90200080903000809030008BD
:1000100009030008090300080903000800000000A4
:1000200000000000000000000000000009030008BC
:100030000903000800000000090300080903000884
:100040000903000809030008090300080903000860
:100050000903000809030008090300080903000850
:100060000903000809030008090300080903000840
:100070000903000809030008090300080903000830
:100080000903000809030008090300080903000820
:100090000903000809030008090300080903000810
:1000A0000903000809030008090300080903000800
:1000B00009030008090300080903000809030008F0
:1000C00009030008090300080903000809030008E0
:1000D00009030008090300080903000809030008D0
:1000E00009030008090300080000000009030008D4
:1000F00009030008090300080903000809030008B0
:10010000090300080903000809030008090300089F
:10011000090300080903000809030008090300088F
:10012000090300080903000809030008090300087F
:1001300010B5054C237833B9044B13B10448AFF321
:1001400000800123237010BD00000020000000008B
:100150005403000808B5034B1BB103490348AFF330
:10016000008008BD000000000400002054030008C7
:1001700080B400AF1C4B00221A601C4B00221A6096
:10018000194B1B68184A23F030031360164B1B6889
:10019000154A43F040031360144B1B68134A43F0A5
:1001A00010031360114B1B68104A23F0C003136047
:1001B0000F4B1B680E4A23F4401313600C4B1B6853
:1001C0000B4A43F4800313600A4B1B68094A43F44B
:1001D00080131360074B1B68064A23F44003136027
:1001E00000BFBD4680BC704700080140000C0140C4
:1001F00004080140040C014080B400AF074B1B68A9
:10020000064A43F004031360044B1B68034A43F09F
:100210000803136000BFBD4680BC70471810024041
:1002200080B485B000AF78600023FB600BE0002352
:10023000BB6002E0BB680133BB60BB68FE2BF9D931
:10024000FB680133FB607B68FA689A42EFD300BF1A
:1002500000BF1437BD4680BC7047000080B500AFBA
:10026000FFF7CAFFFFF784FF114B1B6803F002037F
:10027000002B0CD10F4B1B680E4A83F00203136056
:1002800000BF0B4B1B6803F00203002BF9D0084B97
:100290001B685B0B03F00103012B05D1054B1B68A9
:1002A000044A83F4005313600A20FFF7B9FFDBE729
:1002B000080801400C0C01400D488546AFF3008052
:1002C0000C480D490D4A002302E0D458C4500433B1
:1002D000C4188C42F9D30A4A0A4C002301E0136087
:1002E0000432A242FBD300F011F8FFF7B7FFFEE79C
:1002F00000280020000000200000002074030008F7
:10030000000000201C000020FEE7000070B5002661
:100310000C4D0D4C641BA410A64209D100F01AF834
:1003200000260A4D0A4C641BA410A64205D170BDDC
:1003300055F8043B98470136EEE755F8043B9847DB
:100340000136F2E76C0300086C0300086C03000838
:1003500070030008F8B500BFF8BC08BC9E467047A3
:0C036000F8B500BFF8BC08BC9E46704712
:04036C00550100082F
:04037000310100084F
:04000005080002B934
:00000001FF
