S010000061746D65676133322E7372656340
S11300000C942A000C9447000C9447000C9447006D
S11300100C9447000C9447000C9447000C94470040
S11300200C9447000C9447000C9447000C94470030
S11300300C9447000C9447000C9447000C94470020
S11300400C9447000C9447000C9447000C94470010
S11300500C94470011241FBECFE5D8E0DEBFCDBF0E
S113006010E0A0E6B0E0E6EAF2E002C005900D92EE
S1130070A43AB107D9F720E0A4EAB0E001C01D9288
S1130080A63DB207E1F70E94F3000C9451010C94D1
S1130090000088B3886088BB2FE788E391E0215093
S11300A080409040E1F700C0000088B3877F88BBA0
S11300B008958AB31ABA88B3846088BB88B38D7FE5
S11300C088BB0E9449008AB38FEF8ABB88B38B7FB9
S11300D088BB0895CF93C82F0E945900CBBB88B327
S11300E0897F88BB8FEC97E00197F1F700C000008F
S11300F00E944900CF91089581E00E946A0008950A
S11301008FE39CE90197F1F700C0000087B38E608C
S113011087BB88B3817F88BB8FEF8ABB8FE295E76B
S11301200197F1F700C000000E947C0088E30E9460
S11301306A0086E00E946A0080E80E946A008FE0FC
S11301400E946A000895CF93C82F0E945900CBBB28
S113015088B38B7F88BB88B3826088BB8FEC97E0C1
S11301600197F1F700C000000E944900CF91089563
S1130170813039F4603168F480E8860F0E946A00A7
S11301800895823031F4603120F480EC860F0E94AF
S11301906A0008950F931F93CF93DF938C01C0E0FF
S11301A0D0E018C021960F5F1F4F0E94A300C031FA
S11301B0D10529F460E082E00E94B8000BC0C0328F
S11301C0D10544F00E947C0060E081E00E94B80008
S11301D0C0E0D0E0F80180818111E4CFDF91CF91BC
S11301E01F910F9108950E9480000E94080180E6EB
S11301F090E00E94CA008EE690E00E942E0160E02A
S113020082E00E94B8000E943B010E94CA00FBCF1A
S113021083E389B98BB18D7F8BB980B58F7B80BD2A
S113022080B58F7E80BD80B58F7D80BD80B58260B6
S113023080BD80B5846080BD8AB18B7F8AB98AB164
S113024088608AB98AB180618AB908955D9BFECFBE
S11302508CB908955F9BFECF8CB10895CF93DF9343
S1130260EC0103C00E942601219688818111FACFF6
S1130270DF91CF910895CF93DF930E942A01809359
S1130280A400C4EAD0E004C021960E942A01888315
S113029088818A32C9F7188284EA90E0DF91CF918D
S10902A00895F894FFCF5D
S11302A6756172742069732072656164790077657B
S11302B66C636F6D6520746F2075617274202820DD
S11302C6656E746572202A20746F2073656E6420CF
S11302D6737472696E6720746F206C6364202920BE
S10702E63D3E200075
S9030000FC
