S01500006C6162325F61746D65676133322E737265637B
S11300000C942A000C946E000C948A000C94A600A4
S11300100C9434000C9434000C9434000C9434008C
S11300200C9434000C9434000C9434000C9434007C
S11300300C9434000C9434000C9434000C9434006C
S11300400C9434000C9434000C9434000C9434005C
S11300500C94340011241FBECFE5D8E0DEBFCDBF21
S11300600E9457000C94C2000C94000081B380627B
S113007081BB81B3806481BB81B3806881BB0895F7
S113008085B7816085BF85B7846085BF85B7886083
S113009085BF84B78F7B84BF8BB780628BBF8BB7E0
S11300A080648BBF8BB780688BBF789408950E945F
S11300B040000E94360082B38F7D82BB82B38F7B67
S11300C082BB82B38F7782BB2FEF89E698E1215000
S11300D080409040E1F700C00000EDCF1F920F92E6
S11300E00FB60F9211242F938F939F9382B3806244
S11300F082BB2FEF89E698E1215080409040E1F7E0
S113010000C000009F918F912F910F900FBE0F9010
S11301101F9018951F920F920FB60F9211242F93D0
S11301208F939F9382B3806482BB2FEF89E698E11B
S1130130215080409040E1F700C000009F918F91D2
S11301402F910F900FBE0F901F9018951F920F9232
S11301500FB60F9211242F938F939F9382B38068CD
S113016082BB2FEF89E698E1215080409040E1F76F
S113017000C000009F918F912F910F900FBE0F90A0
S10B01801F901895F894FFCFBD
S9030000FC
